:020000040000FA
:08000000803102288731FD2F39
:100ED00021009D14080016302100970008003830CA
:100EE00021009900980122009601080003102100BA
:100EF0009D1C03140030093D7D2F080001302100A6
:100F00009D009E019F019B019C010800F10071085A
:100F1000F000F00DF00D21001D08700683397006F9
:100F20009D001D1408008731C727873187316F273F
:100F3000873187316B27873187317E2787310800DA
:100F40008731932787310030873186278731873172
:100F500068278731AC2FAC2F873176278731003A4D
:100F60000319B32FB42FAC2FB52F21001C0822007A
:100F70008F0021001C08F2000430F236890BBD2FCF
:100F8000720822008D00A32FA32F80310228220097
:100F900090018F018C018D018E010F302100900096
:100FA000FF308C00F0308D00FF308E00F0308F006D
:100FB000F03023008F00FC308E0030308D00073081
:100FC00090003F308C0024008F0190018D018C0136
:100FD0008E0121009517250090018C018D018E0155
:100FE0008F01FF3026008C00FF308D00FF308E0017
:100FF000FF308F0007309000080020008731A02FBD
:020000040001F9
:04000E00E7FFFFDE2B
:00000001FF
