:020000040000FA
:08000000803102288731FD2F39
:100E0A001630210097000800383021009900980117
:100E1A002200960108008731472787318731092741
:100E2A0087318731052787310800F00070082300D1
:100E3A0091001513951315140000000023001308E0
:100E4A00262F0800F100F2017108230091007008B2
:100E5A00930095131513151500308B1B0130F20002
:100E6A008B1355309600AA30960095143C2F95188E
:100E7A003F2F402F3C2F1511720C031C8B130318A4
:100E8A008B170800220090018F018C018D018E01C1
:100E9A000F3021009000FF308C00F0308D00FF30C1
:100EAA008E00F0308F00F03023008F0030308D003C
:100EBA00073090003F308C00240090018D01210002
:100ECA00951722009D0108008731102787312000DD
:100EDA001212E00140306002031C742F752F772F25
:100EEA00922F922F6008F3007308F0006008873190
:100EFA0027278731802F2000121E842F852F802FCD
:100F0A0012120130F3007308E00740306002031C3C
:100F1A008F2F902F772F922F922FE001403060026F
:100F2A00031C982F992F9B2FD02FD02F6008873121
:100F3A001A278731F30020006008203E86008701C7
:100F4A00730881006008203E86008701010822009C
:100F5A008F0020006008203E860087010108F30008
:100F6A000430F336890BB62F730822008D00213026
:100F7A00F3007630890BBF2FF30BBF2F00320130FD
:100F8A00F30073082000E00740306002031CCE2FF4
:100F9A00CF2F9B2FD02FE00140306002031CD62FA9
:100FAA00D72FD92F922F922F6008203E86008701D3
:100FBA000108F3007308F0006003FF3A3F3E8731EF
:100FCA0027278731E82F2000121EEC2FED2FE82F5C
:100FDA0012120130F3007308E00740306002031C6C
:100FEA00F72FF82FD92F922F922F922F8031022884
:060FFA0020008731692F81
:020000040001F9
:04000E00E7FFFFDE2B
:00000001FF
